:100000000C9456000C9468000C9468000C946800E2
:100010000C9468000C9468000C9468000C946800C0
:100020000C9468000C9468000C9468000C946800B0
:100030000C9468000C9468000C9468000C946800A0
:100040000C9441020C9468000C9468000C946800B5
:100050000C9468000C9468000C9468000C9457028F
:100060000C9468000C9468000C9468000C94680070
:100070000C9468000C9468000C9468000C944C027A
:100080000C9468000C9468000C9468000C94680050
:100090000C9468000C9468000C9468000C94680040
:1000A0000C9468000C9468000C94680011241FBE26
:1000B000CFEFDAE0DEBFCDBF11E0A0E0B1E001C0DC
:1000C0001D92A633B107E1F70E94BD020C94030311
:1000D0000C94000085B7806885BF85B7806885BFB0
:1000E000E1E6F0E080E8808381E0808308955B9A18
:1000F00008955B9808955A9A08955A98089580FF34
:1001000002C02B9A01C02B9881FF02C02A9A01C01D
:100110002A9882FF02C0299A01C0299883FF02C051
:10012000289A089528980895E0ECF0E08081816293
:100130008083E2ECF0E080818960808308951092F2
:10014000800080E8809381001092820010929000DD
:100150008093910010929200089584B18F6C84B9BD
:100160003E9A80B3806E80BB8AB18C6C8AB915B818
:1001700011BA1BB8AAEFB0E0B0930901A09308012F
:10018000809108019091090190931D0180931C01B9
:10019000E6EEF0E0F0930B01E0930A0180910A0192
:1001A00090910B0190931B0180931A0162ED70E016
:1001B00070930D0160930C0180910C0190910D01E1
:1001C00090931901809318014EEB50E050930F016A
:1001D00040930E0180910E0190910F0190931701B1
:1001E000809316012AEA30E0309311012093100128
:1001F0008091100190911101909315018093140149
:100200001092130110921201B0931F01A0931E01CE
:1002100080911E0190911F019093330180933201D0
:10022000F0932101E0932001809120019091210120
:1002300090933101809330017093230160932201E8
:10024000809122019091230190932F0180932E01A0
:100250005093250140932401809124019091250120
:1002600090932D0180932C01309327012093260138
:10027000809126019091270190932B0180932A0170
:100280001092290110922801E0ECF0E08081816257
:100290008083E2ECF0E08081896080830E949F008F
:1002A00091E090936E008EEC86BD95BDEAE7F0E09C
:1002B000808185688083ECE7F0E0808184628083C0
:1002C00010920101109200018091000190910101B2
:1002D00090933501809334018091340190913501E0
:1002E0009093030180930201809102019091030198
:1002F0009093070180930601809106019091070178
:100300009093050180930401789408952FEF27BD01
:1003100090930101809300010895E0ECF0E080816A
:1003200081628083E2ECF0E0808189608083E1EC8F
:10033000F0E010821092C3001092C4001092BF002F
:100340001092BE001092D4001092D0001092D200F1
:1003500080818160808308951092C1001092C00056
:100360001092C2000895E1E7F0E08081806280830E
:10037000109297001092960010929500109294009F
:10038000E1E9F0E0808184608083C59A0895EFE61A
:10039000F0E0808180628083109287001092860056
:1003A0001092850010928400E1E8F0E08081846082
:1003B0008083B59A08950E948D010E94B3010E9426
:1003C000C7010895E1E9F0E08081887F8083089586
:1003D000E1E8F0E08081887F80830895181624F496
:1003E0005F988D9A8E9808C0882319F05F988D9831
:1003F00002C05F9A8D9A8E9A161624F42E988F9AC0
:10040000469808C0662319F02E988F9802C02E9A3D
:100410008F9A469AE82FFF27E7FDF095EE0FFF1F12
:10042000E85DFE4F808191818093D200E62FFF2707
:10043000E7FDF095EE0FFF1FEE5EFE4F808191818C
:100440008093D000089581E0089580917A008064BF
:1004500080937A0080917A0086FDFCCF80917900AC
:1004600090E08B3B91051CF45B985A9AFFCF8B5B15
:1004700090400B9718F45A9A5B9A08955B9A5A9891
:1004800008951F920F920FB60F921124B59A0F90F4
:100490000FBE0F901F9018951F920F920FB60F92DC
:1004A0001124C59A0F900FBE0F901F9018951F92A0
:1004B0000F920FB60F9211242F933F938F939F9318
:1004C0008EEC86BD80910601909107010196909374
:1004D000070180930601809102019091030101962A
:1004E000909303018093020180910001909101019A
:1004F000892B19F484B58F7B0DC0209102013091B6
:10050000030180910001909101018217930720F46B
:1005100084B5806484BD15C020910201309103012F
:10052000809100019091010101968217930748F490
:1005300084B58F7B84BD81E090E09093030180932C
:1005400002018091060190910701CF9768F0109207
:100550000701109206018091040190910501019616
:1005600090930501809304019F918F913F912F916A
:100570000F900FBE0F901F9018950E946A000E9466
:10058000AD00109205011092040180910401909138
:100590000501885E9340C8F3109205011092040192
:1005A0008091040190910501895E934088F08091CB
:1005B0000401909105018C5D954050F41092C100AA
:1005C0001092C0001092C2000E948D018EEF10C0E8
:1005D0008091040190910501885E934068F4109227
:1005E000C1001092C0001092C2000E948D0182E0F2
:1005F00062E00E94EE0104C0109205011092040115
:0A0600000E942502CDCFF894FFCF31
:04000003000003B640
:00000001FF
